0000027071500005                  ASBL CAISSE WALLONNE ASSURBPOTBEB1XXX00000000000 00000                                       2
12140BE82000002383368                  EUR0000000000000000240715CAISSE WALLONNE ASSUR     ASBL CAISSE WALLONNE ASSUR         140
2100010015B5G27PGUFS72EZIK     0000000000600000270715601500000cotisation sociale 2ièmetrimestre                    27071514001 0
2200010001                                                                                        BPOTBEB1XXX                1 0
2300010001BE68000400002334                  EURDUPONT MAXIME                                                                 0 1
3100010002B5G27PGUFS72EZIK     001500001001DUPONT MAXIME                                                                     1 0
3200010002RUE DE LA HOUSSIERE, 1             5370 HAVELANGE                     Belgique                                     0 0
3100010003B5G27PGUFS72EZIK     001500001009DUPONT MAXIME                                                                     0 0
8140BE80000000104777                  EUR0000000000000000270715                                                                0
9               000006000000000600000000000000600000                                                                           2




